:020000002100DD
:03000B0002019857
:100100001201B678607FFE758901758AF0758CD80A
:10011000D28CD2A9D2AF02011F120146020116757C
:10012000B0F0E5B064F070030201167CFF7DFFDDE6
:10013000FEDCFA7CFF7DA0DDFEDCFA75B0F0E5B0F8
:1001400064F060D280D37E0079007AFE7B048AB0AE
:1001500020B405790002017920B5057904020179FE
:1001600020B605790802017920B705790C020179DA
:100170000EEA23FADBD8020179EE299001DA93B472
:100180000C041201B622856465856364856263850B
:100190006162856061F56022758AF0758CD8900186
:1001A000C98F90E693F580EF23B4BF0274FEFF0879
:1001B000B8660278603275601075611075621075EE
:1001C0006310756410756510223F065B4F666D7D88
:1001D000077F6F777C395E7971000708090D040588
:0A01E000060F0102030B0C000E0ACB
:00000001FF
